{
  "contractName": "TodoList",
  "abi": [
    {
      "inputs": [
        {
          "internalType": "uint256",
          "name": "",
          "type": "uint256"
        }
      ],
      "name": "todoItems",
      "outputs": [
        {
          "internalType": "bytes32",
          "name": "value",
          "type": "bytes32"
        },
        {
          "internalType": "bool",
          "name": "active",
          "type": "bool"
        }
      ],
      "stateMutability": "view",
      "type": "function",
      "constant": true
    },
    {
      "inputs": [
        {
          "internalType": "bytes32",
          "name": "_value",
          "type": "bytes32"
        }
      ],
      "name": "addTodoItem",
      "outputs": [
        {
          "internalType": "bytes32",
          "name": "",
          "type": "bytes32"
        },
        {
          "internalType": "bool",
          "name": "",
          "type": "bool"
        }
      ],
      "stateMutability": "nonpayable",
      "type": "function"
    },
    {
      "inputs": [],
      "name": "getTodoItems",
      "outputs": [
        {
          "internalType": "bytes32[]",
          "name": "",
          "type": "bytes32[]"
        },
        {
          "internalType": "bool[]",
          "name": "",
          "type": "bool[]"
        }
      ],
      "stateMutability": "view",
      "type": "function",
      "constant": true
    },
    {
      "inputs": [
        {
          "internalType": "uint256",
          "name": "index",
          "type": "uint256"
        }
      ],
      "name": "delTodoItem",
      "outputs": [
        {
          "internalType": "bool",
          "name": "",
          "type": "bool"
        }
      ],
      "stateMutability": "nonpayable",
      "type": "function"
    }
  ],
  "bytecode": "0x608060405234801561001057600080fd5b5061053a806100206000396000f3fe608060405234801561001057600080fd5b506004361061004c5760003560e01c806333c48df1146100515780633b73a19214610095578063695873611461013c578063c627e61014610187575b600080fd5b61007d6004803603602081101561006757600080fd5b81019080803590602001909291905050506101d2565b60405180821515815260200191505060405180910390f35b61009d6102c9565b604051808060200180602001838103835285818151815260200191508051906020019060200280838360005b838110156100e45780820151818401526020810190506100c9565b50505050905001838103825284818151815260200191508051906020019060200280838360005b8381101561012657808201518184015260208101905061010b565b5050505090500194505050505060405180910390f35b6101686004803603602081101561015257600080fd5b8101908080359060200190929190505050610412565b6040518083815260200182151581526020019250505060405180910390f35b6101b36004803603602081101561019d57600080fd5b81019080803590602001909291905050506104a4565b6040518083815260200182151581526020019250505060405180910390f35b6000808054905082106101e857600090506102c4565b60008290505b60016000805490500383101561027e576000600182018154811061020e57fe5b90600052602060002090600202016000828154811061022957fe5b9060005260206000209060020201600082015481600001556001820160009054906101000a900460ff168160010160006101000a81548160ff02191690831515021790555090505080806001019150506101ee565b50600080548061028a57fe5b60019003818190600052602060002090600202016000808201600090556001820160006101000a81549060ff021916905550509055600190505b919050565b60608060008080549050905060608167ffffffffffffffff811180156102ee57600080fd5b5060405190808252806020026020018201604052801561031d5781602001602082028036833780820191505090505b50905060608267ffffffffffffffff8111801561033957600080fd5b506040519080825280602002602001820160405280156103685781602001602082028036833780820191505090505b50905060005b83811015610404576000818154811061038357fe5b9060005260206000209060020201600001548382815181106103a157fe5b602002602001018181525050600081815481106103ba57fe5b906000526020600020906002020160010160009054906101000a900460ff168282815181106103e557fe5b602002602001019015159081151581525050808060010191505061036e565b508181945094505050509091565b60008061041d6104e5565b83816000018181525050600081602001901515908115158152505060008190806001815401808255809150506001900390600052602060002090600202016000909190919091506000820151816000015560208201518160010160006101000a81548160ff0219169083151502179055505050806000015181602001519250925050915091565b600081815481106104b457600080fd5b90600052602060002090600202016000915090508060000154908060010160009054906101000a900460ff16905082565b604051806040016040528060008019168152602001600015158152509056fea26469706673582212206977b90a1f7b712783f2197f3804c356641f9c90f23b132041c4eff74cdc848e64736f6c63430007040033",
  "immutableReferences": {},
  "source": "//SPDX-License-Identifier: UNLICENSED\npragma solidity ^0.7.4;\nimport \"./ITodoList.sol\";\n\ncontract TodoList is ITodoList {\n\n  TodoItem[] public todoItems;\n\n  struct TodoItem {\n    bytes32 value;\n    bool active;\n  }\n\n  function addTodoItem(bytes32 _value) external override returns (bytes32, bool) {\n    TodoItem memory todoItem;\n    todoItem.value = _value;\n    todoItem.active = false;\n\n    todoItems.push(todoItem);\n    return (todoItem.value, todoItem.active);\n  }\n\n  function getTodoItems() external override view returns (bytes32[] memory, bool[] memory){\n    uint len = todoItems.length;\n\n    bytes32[] memory values = new bytes32[](len);\n    bool[] memory actives = new bool[](len);\n\n    for (uint i = 0; i < len; i++){\n      values[i] = todoItems[i].value;\n      actives[i] = todoItems[i].active;\n    }\n    return (values, actives);\n  }\n\n  function delTodoItem(uint index) external override returns (bool){\n    if(index >= todoItems.length) return false;\n\n    for (uint i = index ; index < todoItems.length - 1; i++) {\n      todoItems[i] = todoItems[i+1];\n    }\n    todoItems.pop();\n    return true;\n  }\n}\n\n",
  "sourcePath": "/Users/nolan/workspace/ethereum-todolist-dapp/contracts/TodoList.sol",
  "compiler": {
    "name": "solc",
    "version": "0.7.4+commit.3f05b770.Emscripten.clang"
  },
  "schemaVersion": "3.3.1",
  "updatedAt": "2020-10-30T03:44:38.533Z",
  "networkType": "ethereum",
  "devdoc": {
    "kind": "dev",
    "methods": {},
    "version": 1
  },
  "userdoc": {
    "kind": "user",
    "methods": {},
    "version": 1
  }
}